:03000000020D24CA
:0C0D2400787FE4F6D8FD758120020800FD
:100CE700D2AF758C3C758AB0E58954F04401F5891B
:050CF700D2A9D28C22FD
:100D1100759850E589540F4420F589D2AC758DF34F
:030D2100D28E224D
:040C7800FFFE7C43BC
:100C7C00AB07AA06A905A8047F007E247D747C49D5
:100C8C00120AC1120B5EC3E49FFFE49EAB07FA7C11
:100C9C00017D00FE120BDF8E0C8F0DAE02AF037CBC
:0A0CAC00017D00120BDF8C0E8D0F8E
:010CB600221B
:03000B00020CFCE8
:100CFC00C0E0850D8C850F8AE50B640F450A6002F8
:050D0C00B280D0E032CE
:03002300020CB715
:100CB700C0E0C0D075D000C007E599D3940BAF99B9
:100CC70050077508008F098005750A008F0BC298B9
:100CD700D200E599C454F0F590D007D0D0D0E032D7
:10080000120CE7120D113000FDE50B640C450A6077
:10081000030208E8E5094508700B7F5C7ECF7D0286
:100820007C43120C7CE50964014508700B7F0A7E4D
:10083000977D0A7C43120C7CE50964024508700B25
:100840007F7B7ED47D127C43120C7CE509640345DA
:1008500008700B7F5C7E8F7D1B7C43120C7CE5094E
:1008600064044508700B7F5C7ECF7D247C43120CB2
:100870007CE50964054508700B7F297E9C7D2E7CF4
:1008800043120C7CE5096406450870057D39120C9D
:1008900078E509640745087009FFFE7D447C431232
:1008A0000C7CE50964084508700B7F667EA67D4FC9
:1008B0007C43120C7CE5096409450870057D5C12D7
:1008C0000C78E509640A4508700B7F7B7E147D690E
:1008D0007C43120C7CE509640B4508700B7FA47EF9
:1008E000F07D767C43120C7CE50B640D450A6003B9
:1008F0000209D1E5094508700B7FA47ED07D827C7A
:1009000043120C7CE50964014508700B7F0A7E9751
:100910007D8A7C43120C7CE50964024508700B7FDC
:100920007B7ED47D927C43120C7CE50964034508F0
:10093000700B7FA47E907D9B7C43120C7CE5096448
:10094000044508700B7FA47ED07DA47C43120C7CF0
:10095000E50964054508700B7F717E9D7DAE7C4383
:10096000120C7CE50964064508700B7FB87EFE7D9D
:10097000B87C43120C7CE509640745087009FFFE4A
:100980007DC47C43120C7CE50964084508700B7F2C
:10099000667EA67DCF7C43120C7CE5096409450880
:1009A0007009FFFE7DDC7C43120C7CE509640A457E
:1009B00008700B7F7B7E147DE97C43120C7CE5097B
:1009C000640B4508700B7FA47EF07DF67C43120C0F
:1009D0007CE50B640E450A6003020AB9E509450887
:1009E000700AFF7ED07D027C44120C7CE509640114
:1009F0004508700B7FAE7E977D0A7C44120C7CE527
:100A00000964024508700B7F1F7ED57D127C44125D
:100A10000C7CE50964034508700AFF7E907D1B7C11
:100A200044120C7CE50964044508700AFF7ED07D01
:100A3000247C44120C7CE50964054508700B7F7129
:100A40007E9D7D2E7C44120C7CE509640645087071
:100A50000B7F5C7EFF7D387C44120C7CE5096407CB
:100A60004508700B7F5C7EFF7D437C44120C7CE567
:100A70000964084508700B7F0A7EA77D4F7C4412ED
:100A80000C7CE509640945087009FFFE7D5C7C4427
:100A9000120C7CE509640A4508700B7F1F7E157DEA
:100AA000697C44120C7CE509640B4508700B7F4897
:0E0AB0007EF17D767C44120C7CC200020806AA
:100ABE00020BD4EC5D046005E859047003020BCA06
:100ACE00120B95580460F6EC4860F2EC7004FDFED3
:100ADE00FF22C860DB2481C85009C398600250060B
:100AEE00020BD19850CAF582E9294B4A7005AB82A8
:100AFE00020BC075F0007C1A7880C3EF9BEE9AED66
:100B0E0099400DC3EF9BFFEE9AFEED99FDE842F082
:100B1E00DC23ACF0D0E0FFD0E0FED0E0FDAB8220D5
:100B2E00E7101BEB60BAEC2CFCEF33FFEE33FEED5F
:100B3E0033FD020BACE803F830E705C0F075F000AA
:100B4E00EF2FFFEE33FEED33FD40B830E7C280AA43
:100B5E00EDD2E7CD33EC3392D524814006E4FFFE8F
:100B6E00FDFC22FCE4CFCECDCC24E0501174FF80EE
:100B7E00EDC3CC13CCCD13CDCE13CECF13CF04708B
:070B8E00F030D5DE020C156A
:100B9500E9D2E7C933E833F892D5EDD2E7CD33ECA6
:070BA50033FC5002B2D5221F
:100BAC00EC30E7100FBF000C0EBE00080DBD0004AA
:100BBC000BEB6014A2D5EB13FCED92E7FD2274FF56
:100BCC00FCFDFEFF22E480F8A2D574FF13FC7D80AF
:030BDC00E480EFC3
:100BDF00C2D5EC30E709B2D5E4C39DFDE49CFCEE31
:100BEF0030E715B2D5E4C39FFFE49EFE120C23C37A
:100BFF00E49DFDE49CFC8003120C2330D507C3E475
:060C0F009FFFE49EFE229F
:0E0C1500C3E49FFFE49EFEE49DFDE49CFC22F0
:100C2300BC000BBE0029EF8DF084FFADF022E4CCB5
:100C3300F875F008EF2FFFEE33FEEC33FCEE9DEC7E
:100C4300984005FCEE9DFE0FD5F0E9E4CEFD22EDC4
:100C5300F8F5F0EE8420D21CFEADF075F008EF2F0E
:100C6300FFED33FD4007985006D5F0F222C398FDFF
:050C73000FD5F0EA229C
:00000001FF
