:10098E002020080000000100020003000400050002
:10099E0006000700080009000A000B000C000D00FD
:0309AE000E000F29
:10080000758920758DF3759850D28E7580FF75802F
:100810000F85802853280FE528B40FF27F147E003F
:100820001209B285802853280FE528640F60ED7FF8
:10083000147E001209B285802853280FE528640F22
:1008400060DA7580EF85802853280FE528640F60F3
:1008500005E4F52980347580DF85802853280FE56D
:1008600028640F600575290180207580BF85802868
:1008700053280FE528640F6005752902800C7580E8
:100880007F85802853280F752903E528640E70158D
:10089000E52975F008A424081209D2E52975F008A5
:1008A000A424088034E528640D7015E52975F00846
:1008B000A4240A1209D2E52975F008A4240A801993
:1008C000E528640B701EE52975F008A4240C1209B4
:1008D000D2E52975F008A4240CF808E6C454F0F514
:1008E0009002080EE52975F008A4240E1209D2E53D
:1008F0002975F008A4240EF808E6C454F0F5900217
:02090000080EDF
:0609D200F8E6FE08E6FF56
:0809D8008F993099FDC29922AC
:1009B200E4FDFCE4FBFAC3EB9FEA9E50070BBB008D
:0F09C200010A80F20DBD00010CBC04E7BDFBE48F
:0109D1002203
:03000000020902F0
:0C090200787FE4F6D8FD758129020949D0
:10090E00020800E493A3F8E493A34003F68001F2F7
:10091E0008DFF48029E493A3F85407240CC8C333EA
:10092E00C4540F4420C8834004F456800146F6DFB9
:10093E00E4800B010204081020408090098EE47EB2
:10094E00019360BCA3FF543F30E509541FFEE493AE
:10095E00A360010ECF54C025E060A840B8E493A375
:10096E00FAE493A3F8E493A3C8C582C8CAC583CAA0
:10097E00F0A3C8C582C8CAC583CADFE9DEE780BE58
:0109B1000045
:00000001FF
